{
  "_format": "hh-sol-artifact-1",
  "contractName": "VaultV1",
  "sourceName": "contracts/non-custodial/V1/VaultV1.sol",
  "abi": [
    {
      "inputs": [
        {
          "internalType": "string",
          "name": "vaultName",
          "type": "string"
        },
        {
          "internalType": "contract IERC20",
          "name": "underlyingToken",
          "type": "address"
        },
        {
          "internalType": "address",
          "name": "adminAddress",
          "type": "address"
        }
      ],
      "stateMutability": "nonpayable",
      "type": "constructor"
    },
    {
      "anonymous": false,
      "inputs": [
        {
          "indexed": true,
          "internalType": "address",
          "name": "strategy",
          "type": "address"
        },
        {
          "indexed": true,
          "internalType": "address",
          "name": "operator",
          "type": "address"
        },
        {
          "indexed": false,
          "internalType": "uint256",
          "name": "debtRatio",
          "type": "uint256"
        },
        {
          "indexed": false,
          "internalType": "uint256",
          "name": "totalDebtRatio",
          "type": "uint256"
        },
        {
          "indexed": false,
          "internalType": "uint256",
          "name": "cooldown",
          "type": "uint256"
        }
      ],
      "name": "AddStrategy",
      "type": "event"
    },
    {
      "anonymous": false,
      "inputs": [
        {
          "indexed": true,
          "internalType": "address",
          "name": "owner",
          "type": "address"
        },
        {
          "indexed": true,
          "internalType": "address",
          "name": "spender",
          "type": "address"
        },
        {
          "indexed": false,
          "internalType": "uint256",
          "name": "value",
          "type": "uint256"
        }
      ],
      "name": "Approval",
      "type": "event"
    },
    {
      "anonymous": false,
      "inputs": [
        {
          "indexed": true,
          "internalType": "address",
          "name": "sender",
          "type": "address"
        },
        {
          "indexed": true,
          "internalType": "address",
          "name": "owner",
          "type": "address"
        },
        {
          "indexed": false,
          "internalType": "uint256",
          "name": "assets",
          "type": "uint256"
        },
        {
          "indexed": false,
          "internalType": "uint256",
          "name": "shares",
          "type": "uint256"
        }
      ],
      "name": "Deposit",
      "type": "event"
    },
    {
      "anonymous": false,
      "inputs": [
        {
          "indexed": false,
          "internalType": "address",
          "name": "account",
          "type": "address"
        }
      ],
      "name": "Paused",
      "type": "event"
    },
    {
      "anonymous": false,
      "inputs": [
        {
          "indexed": true,
          "internalType": "address",
          "name": "caller",
          "type": "address"
        },
        {
          "indexed": true,
          "internalType": "address",
          "name": "strategy",
          "type": "address"
        },
        {
          "indexed": false,
          "internalType": "uint256",
          "name": "totalDebtRatio",
          "type": "uint256"
        }
      ],
      "name": "RevokeStrategy",
      "type": "event"
    },
    {
      "anonymous": false,
      "inputs": [
        {
          "indexed": true,
          "internalType": "bytes32",
          "name": "role",
          "type": "bytes32"
        },
        {
          "indexed": true,
          "internalType": "bytes32",
          "name": "previousAdminRole",
          "type": "bytes32"
        },
        {
          "indexed": true,
          "internalType": "bytes32",
          "name": "newAdminRole",
          "type": "bytes32"
        }
      ],
      "name": "RoleAdminChanged",
      "type": "event"
    },
    {
      "anonymous": false,
      "inputs": [
        {
          "indexed": true,
          "internalType": "bytes32",
          "name": "role",
          "type": "bytes32"
        },
        {
          "indexed": true,
          "internalType": "address",
          "name": "account",
          "type": "address"
        },
        {
          "indexed": true,
          "internalType": "address",
          "name": "sender",
          "type": "address"
        }
      ],
      "name": "RoleGranted",
      "type": "event"
    },
    {
      "anonymous": false,
      "inputs": [
        {
          "indexed": true,
          "internalType": "bytes32",
          "name": "role",
          "type": "bytes32"
        },
        {
          "indexed": true,
          "internalType": "address",
          "name": "account",
          "type": "address"
        },
        {
          "indexed": true,
          "internalType": "address",
          "name": "sender",
          "type": "address"
        }
      ],
      "name": "RoleRevoked",
      "type": "event"
    },
    {
      "anonymous": false,
      "inputs": [
        {
          "indexed": true,
          "internalType": "address",
          "name": "from",
          "type": "address"
        },
        {
          "indexed": true,
          "internalType": "address",
          "name": "to",
          "type": "address"
        },
        {
          "indexed": false,
          "internalType": "uint256",
          "name": "value",
          "type": "uint256"
        }
      ],
      "name": "Transfer",
      "type": "event"
    },
    {
      "anonymous": false,
      "inputs": [
        {
          "indexed": false,
          "internalType": "address",
          "name": "account",
          "type": "address"
        }
      ],
      "name": "Unpaused",
      "type": "event"
    },
    {
      "anonymous": false,
      "inputs": [
        {
          "indexed": true,
          "internalType": "address",
          "name": "sender",
          "type": "address"
        },
        {
          "indexed": true,
          "internalType": "address",
          "name": "receiver",
          "type": "address"
        },
        {
          "indexed": true,
          "internalType": "address",
          "name": "owner",
          "type": "address"
        },
        {
          "indexed": false,
          "internalType": "uint256",
          "name": "assets",
          "type": "uint256"
        },
        {
          "indexed": false,
          "internalType": "uint256",
          "name": "shares",
          "type": "uint256"
        }
      ],
      "name": "Withdraw",
      "type": "event"
    },
    {
      "inputs": [],
      "name": "CLIENT_ROLE",
      "outputs": [
        {
          "internalType": "bytes32",
          "name": "",
          "type": "bytes32"
        }
      ],
      "stateMutability": "view",
      "type": "function"
    },
    {
      "inputs": [],
      "name": "DEFAULT_ADMIN_ROLE",
      "outputs": [
        {
          "internalType": "bytes32",
          "name": "",
          "type": "bytes32"
        }
      ],
      "stateMutability": "view",
      "type": "function"
    },
    {
      "inputs": [
        {
          "internalType": "address",
          "name": "strategy",
          "type": "address"
        },
        {
          "internalType": "address",
          "name": "operator",
          "type": "address"
        },
        {
          "internalType": "uint256",
          "name": "debtRatio",
          "type": "uint256"
        },
        {
          "internalType": "uint256",
          "name": "cooldown",
          "type": "uint256"
        },
        {
          "internalType": "int256",
          "name": "maxSlippageBps",
          "type": "int256"
        },
        {
          "internalType": "bytes",
          "name": "data",
          "type": "bytes"
        }
      ],
      "name": "addStrategy",
      "outputs": [],
      "stateMutability": "nonpayable",
      "type": "function"
    },
    {
      "inputs": [
        {
          "internalType": "address",
          "name": "",
          "type": "address"
        },
        {
          "internalType": "address",
          "name": "",
          "type": "address"
        }
      ],
      "name": "allowance",
      "outputs": [
        {
          "internalType": "uint256",
          "name": "",
          "type": "uint256"
        }
      ],
      "stateMutability": "pure",
      "type": "function"
    },
    {
      "inputs": [
        {
          "internalType": "address",
          "name": "",
          "type": "address"
        },
        {
          "internalType": "uint256",
          "name": "",
          "type": "uint256"
        }
      ],
      "name": "approve",
      "outputs": [
        {
          "internalType": "bool",
          "name": "",
          "type": "bool"
        }
      ],
      "stateMutability": "pure",
      "type": "function"
    },
    {
      "inputs": [],
      "name": "asset",
      "outputs": [
        {
          "internalType": "address",
          "name": "",
          "type": "address"
        }
      ],
      "stateMutability": "view",
      "type": "function"
    },
    {
      "inputs": [
        {
          "internalType": "address",
          "name": "account",
          "type": "address"
        }
      ],
      "name": "assetsOf",
      "outputs": [
        {
          "internalType": "uint256",
          "name": "",
          "type": "uint256"
        }
      ],
      "stateMutability": "view",
      "type": "function"
    },
    {
      "inputs": [
        {
          "internalType": "address",
          "name": "account",
          "type": "address"
        }
      ],
      "name": "balanceOf",
      "outputs": [
        {
          "internalType": "uint256",
          "name": "",
          "type": "uint256"
        }
      ],
      "stateMutability": "view",
      "type": "function"
    },
    {
      "inputs": [
        {
          "internalType": "address",
          "name": "strategy",
          "type": "address"
        },
        {
          "internalType": "uint256",
          "name": "underlyingBorrowAmount",
          "type": "uint256"
        }
      ],
      "name": "borrow",
      "outputs": [],
      "stateMutability": "nonpayable",
      "type": "function"
    },
    {
      "inputs": [
        {
          "internalType": "uint256",
          "name": "shares",
          "type": "uint256"
        }
      ],
      "name": "convertToAssets",
      "outputs": [
        {
          "internalType": "uint256",
          "name": "",
          "type": "uint256"
        }
      ],
      "stateMutability": "view",
      "type": "function"
    },
    {
      "inputs": [
        {
          "internalType": "uint256",
          "name": "assets",
          "type": "uint256"
        }
      ],
      "name": "convertToShares",
      "outputs": [
        {
          "internalType": "uint256",
          "name": "",
          "type": "uint256"
        }
      ],
      "stateMutability": "view",
      "type": "function"
    },
    {
      "inputs": [
        {
          "internalType": "address",
          "name": "strategy",
          "type": "address"
        }
      ],
      "name": "creditAvailable",
      "outputs": [
        {
          "internalType": "uint256",
          "name": "",
          "type": "uint256"
        }
      ],
      "stateMutability": "view",
      "type": "function"
    },
    {
      "inputs": [],
      "name": "decimals",
      "outputs": [
        {
          "internalType": "uint8",
          "name": "",
          "type": "uint8"
        }
      ],
      "stateMutability": "pure",
      "type": "function"
    },
    {
      "inputs": [
        {
          "internalType": "uint256",
          "name": "assets",
          "type": "uint256"
        },
        {
          "internalType": "address",
          "name": "",
          "type": "address"
        }
      ],
      "name": "deposit",
      "outputs": [
        {
          "internalType": "uint256",
          "name": "shares",
          "type": "uint256"
        }
      ],
      "stateMutability": "nonpayable",
      "type": "function"
    },
    {
      "inputs": [
        {
          "internalType": "uint256",
          "name": "assets",
          "type": "uint256"
        }
      ],
      "name": "deposit",
      "outputs": [
        {
          "internalType": "uint256",
          "name": "shares",
          "type": "uint256"
        }
      ],
      "stateMutability": "nonpayable",
      "type": "function"
    },
    {
      "inputs": [],
      "name": "exchangeRate",
      "outputs": [
        {
          "internalType": "uint256",
          "name": "",
          "type": "uint256"
        }
      ],
      "stateMutability": "view",
      "type": "function"
    },
    {
      "inputs": [
        {
          "internalType": "address",
          "name": "strategy",
          "type": "address"
        }
      ],
      "name": "fetchData",
      "outputs": [
        {
          "internalType": "bytes",
          "name": "",
          "type": "bytes"
        }
      ],
      "stateMutability": "view",
      "type": "function"
    },
    {
      "inputs": [
        {
          "internalType": "bytes32",
          "name": "role",
          "type": "bytes32"
        }
      ],
      "name": "getRoleAdmin",
      "outputs": [
        {
          "internalType": "bytes32",
          "name": "",
          "type": "bytes32"
        }
      ],
      "stateMutability": "view",
      "type": "function"
    },
    {
      "inputs": [
        {
          "internalType": "bytes32",
          "name": "role",
          "type": "bytes32"
        },
        {
          "internalType": "address",
          "name": "account",
          "type": "address"
        }
      ],
      "name": "grantRole",
      "outputs": [],
      "stateMutability": "nonpayable",
      "type": "function"
    },
    {
      "inputs": [
        {
          "internalType": "bytes32",
          "name": "role",
          "type": "bytes32"
        },
        {
          "internalType": "address",
          "name": "account",
          "type": "address"
        }
      ],
      "name": "hasRole",
      "outputs": [
        {
          "internalType": "bool",
          "name": "",
          "type": "bool"
        }
      ],
      "stateMutability": "view",
      "type": "function"
    },
    {
      "inputs": [
        {
          "internalType": "address",
          "name": "",
          "type": "address"
        }
      ],
      "name": "maxDeposit",
      "outputs": [
        {
          "internalType": "uint256",
          "name": "",
          "type": "uint256"
        }
      ],
      "stateMutability": "pure",
      "type": "function"
    },
    {
      "inputs": [
        {
          "internalType": "address",
          "name": "",
          "type": "address"
        }
      ],
      "name": "maxMint",
      "outputs": [
        {
          "internalType": "uint256",
          "name": "",
          "type": "uint256"
        }
      ],
      "stateMutability": "pure",
      "type": "function"
    },
    {
      "inputs": [
        {
          "internalType": "address",
          "name": "owner",
          "type": "address"
        }
      ],
      "name": "maxRedeem",
      "outputs": [
        {
          "internalType": "uint256",
          "name": "",
          "type": "uint256"
        }
      ],
      "stateMutability": "view",
      "type": "function"
    },
    {
      "inputs": [
        {
          "internalType": "address",
          "name": "owner",
          "type": "address"
        }
      ],
      "name": "maxWithdraw",
      "outputs": [
        {
          "internalType": "uint256",
          "name": "",
          "type": "uint256"
        }
      ],
      "stateMutability": "view",
      "type": "function"
    },
    {
      "inputs": [
        {
          "internalType": "uint256",
          "name": "shares",
          "type": "uint256"
        },
        {
          "internalType": "address",
          "name": "",
          "type": "address"
        }
      ],
      "name": "mint",
      "outputs": [
        {
          "internalType": "uint256",
          "name": "assets",
          "type": "uint256"
        }
      ],
      "stateMutability": "nonpayable",
      "type": "function"
    },
    {
      "inputs": [
        {
          "internalType": "uint256",
          "name": "shares",
          "type": "uint256"
        }
      ],
      "name": "mint",
      "outputs": [
        {
          "internalType": "uint256",
          "name": "assets",
          "type": "uint256"
        }
      ],
      "stateMutability": "nonpayable",
      "type": "function"
    },
    {
      "inputs": [],
      "name": "name",
      "outputs": [
        {
          "internalType": "string",
          "name": "",
          "type": "string"
        }
      ],
      "stateMutability": "view",
      "type": "function"
    },
    {
      "inputs": [],
      "name": "netDeposits",
      "outputs": [
        {
          "internalType": "int256",
          "name": "",
          "type": "int256"
        }
      ],
      "stateMutability": "view",
      "type": "function"
    },
    {
      "inputs": [],
      "name": "pause",
      "outputs": [],
      "stateMutability": "nonpayable",
      "type": "function"
    },
    {
      "inputs": [],
      "name": "paused",
      "outputs": [
        {
          "internalType": "bool",
          "name": "",
          "type": "bool"
        }
      ],
      "stateMutability": "view",
      "type": "function"
    },
    {
      "inputs": [
        {
          "internalType": "uint256",
          "name": "assets",
          "type": "uint256"
        }
      ],
      "name": "previewDeposit",
      "outputs": [
        {
          "internalType": "uint256",
          "name": "",
          "type": "uint256"
        }
      ],
      "stateMutability": "view",
      "type": "function"
    },
    {
      "inputs": [
        {
          "internalType": "uint256",
          "name": "shares",
          "type": "uint256"
        }
      ],
      "name": "previewMint",
      "outputs": [
        {
          "internalType": "uint256",
          "name": "",
          "type": "uint256"
        }
      ],
      "stateMutability": "view",
      "type": "function"
    },
    {
      "inputs": [
        {
          "internalType": "uint256",
          "name": "shares",
          "type": "uint256"
        }
      ],
      "name": "previewRedeem",
      "outputs": [
        {
          "internalType": "uint256",
          "name": "",
          "type": "uint256"
        }
      ],
      "stateMutability": "view",
      "type": "function"
    },
    {
      "inputs": [
        {
          "internalType": "uint256",
          "name": "assets",
          "type": "uint256"
        }
      ],
      "name": "previewWithdraw",
      "outputs": [
        {
          "internalType": "uint256",
          "name": "",
          "type": "uint256"
        }
      ],
      "stateMutability": "view",
      "type": "function"
    },
    {
      "inputs": [
        {
          "internalType": "uint256",
          "name": "shares",
          "type": "uint256"
        },
        {
          "internalType": "address",
          "name": "receiver",
          "type": "address"
        }
      ],
      "name": "redeem",
      "outputs": [
        {
          "internalType": "uint256",
          "name": "",
          "type": "uint256"
        }
      ],
      "stateMutability": "nonpayable",
      "type": "function"
    },
    {
      "inputs": [
        {
          "internalType": "uint256",
          "name": "shares",
          "type": "uint256"
        },
        {
          "internalType": "address",
          "name": "receiver",
          "type": "address"
        },
        {
          "internalType": "address",
          "name": "owner",
          "type": "address"
        }
      ],
      "name": "redeem",
      "outputs": [
        {
          "internalType": "uint256",
          "name": "",
          "type": "uint256"
        }
      ],
      "stateMutability": "nonpayable",
      "type": "function"
    },
    {
      "inputs": [
        {
          "internalType": "bytes32",
          "name": "role",
          "type": "bytes32"
        },
        {
          "internalType": "address",
          "name": "account",
          "type": "address"
        }
      ],
      "name": "renounceRole",
      "outputs": [],
      "stateMutability": "nonpayable",
      "type": "function"
    },
    {
      "inputs": [
        {
          "internalType": "address",
          "name": "strategy",
          "type": "address"
        },
        {
          "internalType": "uint256",
          "name": "underlyingRepayAmount",
          "type": "uint256"
        }
      ],
      "name": "repay",
      "outputs": [],
      "stateMutability": "nonpayable",
      "type": "function"
    },
    {
      "inputs": [
        {
          "internalType": "bytes32",
          "name": "role",
          "type": "bytes32"
        },
        {
          "internalType": "address",
          "name": "account",
          "type": "address"
        }
      ],
      "name": "revokeRole",
      "outputs": [],
      "stateMutability": "nonpayable",
      "type": "function"
    },
    {
      "inputs": [
        {
          "internalType": "address",
          "name": "strategy",
          "type": "address"
        }
      ],
      "name": "revokeStrategy",
      "outputs": [],
      "stateMutability": "nonpayable",
      "type": "function"
    },
    {
      "inputs": [
        {
          "internalType": "address[]",
          "name": "queue",
          "type": "address[]"
        }
      ],
      "name": "setWithdrawalQueue",
      "outputs": [],
      "stateMutability": "nonpayable",
      "type": "function"
    },
    {
      "inputs": [
        {
          "internalType": "address",
          "name": "",
          "type": "address"
        }
      ],
      "name": "strategies",
      "outputs": [
        {
          "internalType": "address",
          "name": "operator",
          "type": "address"
        },
        {
          "internalType": "uint256",
          "name": "debtRatio",
          "type": "uint256"
        },
        {
          "internalType": "uint256",
          "name": "totalDebt",
          "type": "uint256"
        },
        {
          "internalType": "bool",
          "name": "activation",
          "type": "bool"
        },
        {
          "internalType": "int256",
          "name": "netDeposits",
          "type": "int256"
        },
        {
          "internalType": "uint256",
          "name": "cooldown",
          "type": "uint256"
        },
        {
          "internalType": "uint256",
          "name": "lastCooldown",
          "type": "uint256"
        },
        {
          "internalType": "int256",
          "name": "maxSlippageBps",
          "type": "int256"
        },
        {
          "internalType": "bytes",
          "name": "data",
          "type": "bytes"
        }
      ],
      "stateMutability": "view",
      "type": "function"
    },
    {
      "inputs": [
        {
          "internalType": "uint256",
          "name": "balanceBefore",
          "type": "uint256"
        },
        {
          "internalType": "uint256",
          "name": "balanceAfter",
          "type": "uint256"
        }
      ],
      "name": "strategyHook",
      "outputs": [],
      "stateMutability": "nonpayable",
      "type": "function"
    },
    {
      "inputs": [
        {
          "internalType": "bytes4",
          "name": "interfaceId",
          "type": "bytes4"
        }
      ],
      "name": "supportsInterface",
      "outputs": [
        {
          "internalType": "bool",
          "name": "",
          "type": "bool"
        }
      ],
      "stateMutability": "view",
      "type": "function"
    },
    {
      "inputs": [],
      "name": "symbol",
      "outputs": [
        {
          "internalType": "string",
          "name": "",
          "type": "string"
        }
      ],
      "stateMutability": "view",
      "type": "function"
    },
    {
      "inputs": [
        {
          "internalType": "bool",
          "name": "whitelistStatus",
          "type": "bool"
        }
      ],
      "name": "toggleWhitelist",
      "outputs": [],
      "stateMutability": "nonpayable",
      "type": "function"
    },
    {
      "inputs": [],
      "name": "totalAssets",
      "outputs": [
        {
          "internalType": "uint256",
          "name": "",
          "type": "uint256"
        }
      ],
      "stateMutability": "view",
      "type": "function"
    },
    {
      "inputs": [],
      "name": "totalCreditAvailable",
      "outputs": [
        {
          "internalType": "uint256",
          "name": "",
          "type": "uint256"
        }
      ],
      "stateMutability": "view",
      "type": "function"
    },
    {
      "inputs": [],
      "name": "totalDebt",
      "outputs": [
        {
          "internalType": "uint256",
          "name": "",
          "type": "uint256"
        }
      ],
      "stateMutability": "view",
      "type": "function"
    },
    {
      "inputs": [],
      "name": "totalDebtRatio",
      "outputs": [
        {
          "internalType": "uint256",
          "name": "",
          "type": "uint256"
        }
      ],
      "stateMutability": "view",
      "type": "function"
    },
    {
      "inputs": [],
      "name": "totalSupply",
      "outputs": [
        {
          "internalType": "uint256",
          "name": "",
          "type": "uint256"
        }
      ],
      "stateMutability": "view",
      "type": "function"
    },
    {
      "inputs": [
        {
          "internalType": "address",
          "name": "",
          "type": "address"
        },
        {
          "internalType": "uint256",
          "name": "",
          "type": "uint256"
        }
      ],
      "name": "transfer",
      "outputs": [
        {
          "internalType": "bool",
          "name": "",
          "type": "bool"
        }
      ],
      "stateMutability": "pure",
      "type": "function"
    },
    {
      "inputs": [
        {
          "internalType": "address",
          "name": "",
          "type": "address"
        },
        {
          "internalType": "address",
          "name": "",
          "type": "address"
        },
        {
          "internalType": "uint256",
          "name": "",
          "type": "uint256"
        }
      ],
      "name": "transferFrom",
      "outputs": [
        {
          "internalType": "bool",
          "name": "",
          "type": "bool"
        }
      ],
      "stateMutability": "pure",
      "type": "function"
    },
    {
      "inputs": [],
      "name": "unpause",
      "outputs": [],
      "stateMutability": "nonpayable",
      "type": "function"
    },
    {
      "inputs": [],
      "name": "whitelistActive",
      "outputs": [
        {
          "internalType": "bool",
          "name": "",
          "type": "bool"
        }
      ],
      "stateMutability": "view",
      "type": "function"
    },
    {
      "inputs": [
        {
          "internalType": "uint256",
          "name": "assets",
          "type": "uint256"
        },
        {
          "internalType": "address",
          "name": "receiver",
          "type": "address"
        }
      ],
      "name": "withdraw",
      "outputs": [
        {
          "internalType": "uint256",
          "name": "shares",
          "type": "uint256"
        }
      ],
      "stateMutability": "nonpayable",
      "type": "function"
    },
    {
      "inputs": [
        {
          "internalType": "uint256",
          "name": "assets",
          "type": "uint256"
        },
        {
          "internalType": "address",
          "name": "receiver",
          "type": "address"
        },
        {
          "internalType": "address",
          "name": "owner",
          "type": "address"
        }
      ],
      "name": "withdraw",
      "outputs": [
        {
          "internalType": "uint256",
          "name": "shares",
          "type": "uint256"
        }
      ],
      "stateMutability": "nonpayable",
      "type": "function"
    },
    {
      "inputs": [
        {
          "internalType": "uint256",
          "name": "",
          "type": "uint256"
        }
      ],
      "name": "withdrawalQueue",
      "outputs": [
        {
          "internalType": "address",
          "name": "",
          "type": "address"
        }
      ],
      "stateMutability": "view",
      "type": "function"
    },
    {
      "inputs": [],
      "name": "withdrawalQueueLength",
      "outputs": [
        {
          "internalType": "uint256",
          "name": "",
          "type": "uint256"
        }
      ],
      "stateMutability": "view",
      "type": "function"
    }
  ],
  "bytecode": "0x60a06040523480156200001157600080fd5b50604051620040df380380620040df833981016040819052620000349162000383565b6000805460ff19169055600180556001600160a01b03821660805282516200006490600a90602086019062000142565b50620000726000826200007b565b5050506200043d565b6200008782826200008b565b5050565b62000097828262000115565b620000875760008281526002602090815260408083206001600160a01b03851684529091529020805460ff19166001179055620000d13390565b6001600160a01b0316816001600160a01b0316837f2f8788117e7eff1d82e926ec794901d17c78024a50270940304540a733656f0d60405160405180910390a45050565b60008281526002602090815260408083206001600160a01b038516845290915290205460ff165b92915050565b82805462000150906200040c565b90600052602060002090601f016020900481019282620001745760008555620001bf565b82601f106200018f57805160ff1916838001178555620001bf565b82800160010185558215620001bf579182015b82811115620001bf578251825591602001919060010190620001a2565b50620001cd929150620001d1565b5090565b5b80821115620001cd5760008155600101620001d2565b634e487b7160e01b600052604160045260246000fd5b601f19601f83011681018181106001600160401b0382111715620002265762000226620001e8565b6040525050565b60006200023960405190565b9050620002478282620001fe565b919050565b60006001600160401b03821115620002685762000268620001e8565b601f19601f83011660200192915050565b60005b83811015620002965781810151838201526020016200027c565b83811115620002a6576000848401525b50505050565b6000620002c3620002bd846200024c565b6200022d565b905082815260208101848484011115620002e057620002e0600080fd5b620002ed84828562000279565b509392505050565b600082601f8301126200030b576200030b600080fd5b81516200031d848260208601620002ac565b949350505050565b60006001600160a01b0382166200013c565b60006200013c8262000325565b6200034f8162000337565b81146200035b57600080fd5b50565b80516200013c8162000344565b6200034f8162000325565b80516200013c816200036b565b6000806000606084860312156200039d576200039d600080fd5b83516001600160401b03811115620003b857620003b8600080fd5b620003c686828701620002f5565b9350506020620003d9868287016200035e565b9250506040620003ec8682870162000376565b9150509250925092565b634e487b7160e01b600052602260045260246000fd5b6002810460018216806200042157607f821691505b60208210811415620004375762000437620003f6565b50919050565b608051613c32620004ad6000396000818161050e01528181610ee70152818161102701528181611baa01528181611d1301528181611f25015281816122ae0152818161234d015281816123f20152818161286d0152818161291301528181612a100152612ac60152613c326000f3fe608060405234801561001057600080fd5b50600436106103985760003560e01c80636e553f65116101e9578063ba0876521161010f578063d547741f116100ad578063eae6f6521161007c578063eae6f65214610754578063ef8b30f714610439578063fc7b9c181461075c578063fcd7563d1461076557600080fd5b8063d547741f14610720578063d764801314610733578063d905777e146105dd578063dd62ed3e1461074657600080fd5b8063c63d75b6116100e9578063c63d75b614610573578063c6e6f592146106e7578063c822adda146106fa578063ce96cb771461070d57600080fd5b8063ba087652146106ae578063bb994d48146106c1578063c4bfd57d146106d457600080fd5b806395d89b4111610187578063ac579b7711610156578063ac579b7714610675578063b3d7f6b9146105a3578063b460af9414610688578063b6b55f251461069b57600080fd5b806395d89b41146103fb578063a0712d681461065a578063a217fddf1461066d578063a9059cbb1461042357600080fd5b806380e3f1ad116101c357806380e3f1ad146106195780638456cb591461062c57806391d148541461063457806394bf804d1461064757600080fd5b80636e553f65146105ca57806370a08231146105dd5780637bde82f21461060657600080fd5b80632df9eab9116102ce5780633ba0b9a91161026c5780634b8a35291161023b5780634b8a3529146105905780634cdad506146105a35780635a4eacfa146105b65780635c975abb146105bf57600080fd5b80633ba0b9a9146105635780633f4ba83a1461056b578063402d267d14610573578063409a19061461058857600080fd5b8063313ce567116102a8578063313ce567146104ea57806336568abe146104f957806338d52e0f1461050c57806339ebf8231461053b57600080fd5b80632df9eab9146104c55780632f06e9b0146104ce5780632f2ff15d146104d757600080fd5b80630a28a4771161033b57806322867d781161031557806322867d781461046957806323b872dd1461047c578063248a9ca31461048f5780632c62fa10146104b257600080fd5b80630a28a4771461043957806318160ddd1461044c5780631ff647071461045457600080fd5b806302ce58131161037757806302ce5813146103ee57806306fdde03146103fb57806307a2d13a14610410578063095ea7b31461042357600080fd5b8062f714ce1461039d57806301e1d114146103c657806301ffc9a7146103ce575b600080fd5b6103b06103ab366004612f1b565b610778565b6040516103bd9190612f60565b60405180910390f35b6103b061078f565b6103e16103dc366004612f89565b61079e565b6040516103bd9190612fba565b600c546103e19060ff1681565b6104036107d3565b6040516103bd9190613026565b6103b061041e366004613037565b610865565b6103e1610431366004613058565b600092915050565b6103b0610447366004613037565b610895565b6003546103b0565b61046761046236600461308b565b6108a0565b005b610467610477366004613058565b610a78565b6103e161048a3660046130ad565b610c46565b6103b061049d366004613037565b60009081526002602052604090206001015490565b6103b06104c03660046130fd565b610c50565b6103b060085481565b6103b0600b5481565b6104676104e5366004612f1b565b610c86565b60126040516103bd9190613127565b610467610507366004612f1b565b610cb0565b7f00000000000000000000000000000000000000000000000000000000000000005b6040516103bd919061313e565b61054e6105493660046130fd565b610ce6565b6040516103bd9998979695949392919061314c565b6103b0610dca565b610467610e0b565b6103b06105813660046130fd565b5060001990565b6103b0610e21565b61046761059e366004613058565b610e68565b6103b06105b1366004613037565b6110b8565b6103b060065481565b60005460ff166103e1565b6103b06105d8366004612f1b565b6110c3565b6103b06105eb3660046130fd565b6001600160a01b031660009081526004602052604090205490565b6103b0610614366004612f1b565b611132565b6104676106273660046131eb565b611140565b61046761115f565b6103e1610642366004612f1b565b61125b565b6103b0610655366004612f1b565b611286565b6103b0610668366004613037565b6112ec565b6103b0600081565b61046761068336600461325e565b6112f9565b6103b06106963660046132a6565b61145f565b6103b06106a9366004613037565b611504565b6103b06106bc3660046132a6565b611511565b6104676106cf3660046130fd565b611595565b6104036106e23660046130fd565b6115b1565b6103b06106f5366004613037565b611660565b61052e610708366004613037565b611686565b6103b061071b3660046130fd565b6116b0565b61046761072e366004612f1b565b6116d2565b6103b06107413660046130fd565b61172d565b6103b06104313660046132ec565b6103b0600181565b6103b060095481565b610467610773366004613359565b6118aa565b60006107868383600061145f565b90505b92915050565b6000610799611b90565b905090565b60006001600160e01b03198216637965db0b60e01b148061078957506301ffc9a760e01b6001600160e01b0319831614610789565b6060600a80546107e29061341a565b80601f016020809104026020016040519081016040528092919081815260200182805461080e9061341a565b801561085b5780601f106108305761010080835404028352916020019161085b565b820191906000526020600020905b81548152906001019060200180831161083e57829003601f168201915b5050505050905090565b600060035460001415610876575090565b600354610881611b90565b61088b908461345d565b6107899190613492565b600061078982611660565b33600090815260076020818152604080842081516101208101835281546001600160a01b03168152600182015493810193909352600281015491830191909152600381015460ff161515606083015260048101546080830152600581015460a0830152600681015460c08301529182015460e08201526008820180549192916101008401919061092f9061341a565b80601f016020809104026020016040519081016040528092919081815260200182805461095b9061341a565b80156109a85780601f1061097d576101008083540402835291602001916109a8565b820191906000526020600020905b81548152906001019060200180831161098b57829003601f168201915b5050509190925250505060e081015190915083908390826109cb612710846134a6565b6109d5919061352e565b6109e19061271061355c565b1315610a085760405162461bcd60e51b81526004016109ff906135e4565b60405180910390fd5b8260600151610a295760405162461bcd60e51b81526004016109ff90613637565b428360a001518460c00151610a3e9190613647565b10610a5b5760405162461bcd60e51b81526004016109ff90613696565b505033600090815260076020526040902042600690910155505050565b6001600160a01b03808316600090815260076020526040902054839116331480610aa85750610aa860003361125b565b610ac45760405162461bcd60e51b81526004016109ff906136da565b6001600160a01b03808416600090815260076020818152604080842081516101208101835281549096168652600181015492860192909252600282015490850152600381015460ff161515606085015260048101546080850152600581015460a0850152600681015460c08501529081015460e084015260088101805492939261010084019190610b549061341a565b80601f0160208091040260200160405190810160405280929190818152602001828054610b809061341a565b8015610bcd5780601f10610ba257610100808354040283529160200191610bcd565b820191906000526020600020905b815481529060010190602001808311610bb057829003601f168201915b50505050508152505090508060600151610bf95760405162461bcd60e51b81526004016109ff9061371e565b82158015610c125750610c0b8461172d565b8160400151115b610c1c5782610c34565b610c258461172d565b8160400151610c34919061372e565b9250610c408484611cf7565b50505050565b60005b9392505050565b6000670de0b6b3a7640000610c63610dca565b6001600160a01b03841660009081526004602052604090205461088b919061345d565b600082815260026020526040902060010154610ca1816120be565b610cab83836120c8565b505050565b6001600160a01b0381163314610cd85760405162461bcd60e51b81526004016109ff9061378c565b610ce2828261214e565b5050565b60076020819052600091825260409091208054600182015460028301546003840154600485015460058601546006870154978701546008880180546001600160a01b03909816999698959760ff9095169693959294919291610d479061341a565b80601f0160208091040260200160405190810160405280929190818152602001828054610d739061341a565b8015610dc05780601f10610d9557610100808354040283529160200191610dc0565b820191906000526020600020905b815481529060010190602001808311610da357829003601f168201915b5050505050905089565b600060035460001415610de45750670de0b6b3a764000090565b600354610def611b90565b610e0190670de0b6b3a764000061345d565b6107999190613492565b6000610e16816120be565b610e1e6121b5565b50565b600060085460001415610e345750600090565b600080610e3f611b90565b6009549150915080821115610e5f57610e58818361372e565b9250505090565b60009250505090565b610e70612201565b6001600160a01b03808316600090815260076020526040902054839116331480610ea05750610ea060003361125b565b610ebc5760405162461bcd60e51b81526004016109ff906136da565b6000610ec78461172d565b905080831180610ed5575082155b610edf5782610ee1565b805b925060007f00000000000000000000000000000000000000000000000000000000000000006001600160a01b03166370a08231306040518263ffffffff1660e01b8152600401610f31919061313e565b60206040518083038186803b158015610f4957600080fd5b505afa158015610f5d573d6000803e3d6000fd5b505050506040513d601f19601f82011682018060405250810190610f8191906137a7565b9050808411610f905783610f92565b805b6001600160a01b038616600090815260076020526040812060040180549296508692909190610fc29084906137c8565b90915550506001600160a01b03851660009081526007602052604081206002018054869290610ff2908490613647565b92505081905550836009600082825461100b9190613647565b909155505060405163a9059cbb60e01b81526001600160a01b037f0000000000000000000000000000000000000000000000000000000000000000169063a9059cbb9061105e9088908890600401613804565b602060405180830381600087803b15801561107857600080fd5b505af115801561108c573d6000803e3d6000fd5b505050506040513d601f19601f820116820180604052508101906110b0919061382a565b505050505050565b600061078982610865565b600c5460009060ff1615806110de57506110de60013361125b565b806110ef57506110ef60003361125b565b61110b5760405162461bcd60e51b81526004016109ff9061387f565b611113612226565b61111c83611660565b9050611129818433612250565b61078960018055565b600061078683836000611511565b600061114b816120be565b50600c805460ff1916911515919091179055565b600061116a816120be565b611172612506565b60005b600554811015610ce2576111af600582815481106111955761119561388f565b60009182526020822001546001600160a01b031690611cf7565b60076000600583815481106111c6576111c661388f565b60009182526020808320909101546001600160a01b03168352820192909252604001812060010154600880549192909161120190849061372e565b92505081905550600060076000600584815481106112215761122161388f565b60009182526020808320909101546001600160a01b0316835282019290925260400190206001015580611253816138a5565b915050611175565b60009182526002602090815260408084206001600160a01b0393909316845291905290205460ff1690565b600c5460009060ff1615806112a157506112a160013361125b565b806112b257506112b260003361125b565b6112ce5760405162461bcd60e51b81526004016109ff9061387f565b6112d6612226565b6112df83610865565b9050611129838233612250565b6000610789826000611286565b6000611304816120be565b60005b8281101561138857600760008585848181106113255761132561388f565b905060200201602081019061133a91906130fd565b6001600160a01b0316815260208101919091526040016000206003015460ff166113765760405162461bcd60e51b81526004016109ff9061371e565b80611380816138a5565b915050611307565b5060005b60055481101561144a57600080600583815481106113ac576113ac61388f565b60009182526020822001546001600160a01b031691505b85811015611426578686828181106113dd576113dd61388f565b90506020020160208101906113f291906130fd565b6001600160a01b0316826001600160a01b031614156114145760019250611426565b8061141e816138a5565b9150506113c3565b50816114355761143581612543565b50508080611442906138a5565b91505061138c565b5061145760058484612df6565b505060065550565b6000611469612226565b6000611475813361125b565b801561148957506001600160a01b03831615155b9050846114cb57806114aa57336000908152600460205260409020546114c4565b6001600160a01b0383166000908152600460205260409020545b91506114d7565b6114d485611660565b91505b80156114f0576114e88284856127b3565b9150506114fb565b6114e88285336127b3565b610c4960018055565b60006107898260006110c3565b600061151b612226565b6000611527813361125b565b801561153b57506001600160a01b03831615155b905084611579578061155c5733600090815260046020526040902054611576565b6001600160a01b0383166000908152600460205260409020545b94505b801561158a576114e88584856127b3565b6114e88585336127b3565b60006115a0816120be565b6115a8612201565b610ce282612543565b6001600160a01b03811660009081526007602052604090206008018054606091906115db9061341a565b80601f01602080910402602001604051908101604052809291908181526020018280546116079061341a565b80156116545780601f1061162957610100808354040283529160200191611654565b820191906000526020600020905b81548152906001019060200180831161163757829003601f168201915b50505050509050919050565b600060035460001415611671575090565b611679611b90565b60035461088b908461345d565b6005818154811061169657600080fd5b6000918252602090912001546001600160a01b0316905081565b6001600160a01b03811660009081526004602052604081205461078990610865565b6000828152600260205260409020600101546116ed816120be565b6001600160a01b038216600090815260046020526040902054156117235760405162461bcd60e51b81526004016109ff9061391a565b610cab838361214e565b60006008546000141561174257506000919050565b6001600160a01b03808316600090815260076020818152604080842081516101208101835281549096168652600181015492860192909252600282015490850152600381015460ff161515606085015260048101546080850152600581015460a0850152600681015460c08501529081015460e0840152600881018054929392610100840191906117d29061341a565b80601f01602080910402602001604051908101604052809291908181526020018280546117fe9061341a565b801561184b5780601f106118205761010080835404028352916020019161184b565b820191906000526020600020905b81548152906001019060200180831161182e57829003601f168201915b505050505081525050905060006008548260200151611868611b90565b611872919061345d565b61187c9190613492565b60408301519091508082111561189f57611896818361372e565b95945050505050565b506000949350505050565b60006118b5816120be565b6118bd612201565b6001600160a01b03808916600090815260076020818152604080842081516101208101835281549096168652600181015492860192909252600282015490850152600381015460ff161515606085015260048101546080850152600581015460a0850152600681015460c08501529081015460e08401526008810180549293926101008401919061194d9061341a565b80601f01602080910402602001604051908101604052809291908181526020018280546119799061341a565b80156119c65780601f1061199b576101008083540402835291602001916119c6565b820191906000526020600020905b8154815290600101906020018083116119a957829003601f168201915b50505050508152505090508060200151600860008282546119e7919061372e565b92505081905550604051806101200160405280896001600160a01b0316815260200188815260200182604001518152602001600115158152602001826080015181526020018781526020018260c00151815260200186815260200185858080601f01602080910402602001604051908101604052809392919081815260200183838082843760009201829052509390945250506001600160a01b038c8116825260076020818152604093849020865181546001600160a01b0319169416939093178355858101516001840155928501516002830155606085015160038301805460ff19169115159190911790556080850151600483015560a0850151600583015560c0850151600683015560e0850151908201556101008401518051919350611b17926008850192910190612e55565b509050508660086000828254611b2d9190613647565b92505081905550876001600160a01b0316896001600160a01b03167f5230ddda9d95e0bf6f6ade50dc38b696570a8baa6c2d7cdcd608f0285ac8513c896008548a604051611b7d9392919061392a565b60405180910390a3505050505050505050565b6040516370a0823160e01b81526000906001600160a01b037f000000000000000000000000000000000000000000000000000000000000000016906370a0823190611bdf90309060040161313e565b60206040518083038186803b158015611bf757600080fd5b505afa158015611c0b573d6000803e3d6000fd5b505050506040513d601f19601f82011682018060405250810190611c2f91906137a7565b905060005b600554811015611cf35760058181548110611c5157611c5161388f565b600091825260209182902001546040805163621fbaa560e11b815290516001600160a01b039092169263c43f754a92600480840193829003018186803b158015611c9a57600080fd5b505afa925050508015611cca575060408051601f3d908101601f19168201909252611cc7918101906137a7565b60015b611cd357611ce1565b611cdd8184613647565b9250505b80611ceb816138a5565b915050611c34565b5090565b6040516370a0823160e01b815282906000906001600160a01b037f000000000000000000000000000000000000000000000000000000000000000016906370a0823190611d4890309060040161313e565b60206040518083038186803b158015611d6057600080fd5b505afa158015611d74573d6000803e3d6000fd5b505050506040513d601f19601f82011682018060405250810190611d9891906137a7565b6001600160a01b03808616600090815260076020818152604080842081516101208101835281549096168652600181015492860192909252600282015490850152600381015460ff161515606085015260048101546080850152600581015460a0850152600681015460c08501529081015460e084015260088101805494955091939091610100840191611e2b9061341a565b80601f0160208091040260200160405190810160405280929190818152602001828054611e579061341a565b8015611ea45780601f10611e7957610100808354040283529160200191611ea4565b820191906000526020600020905b815481529060010190602001808311611e8757829003601f168201915b5050505050815250509050826001600160a01b0316632e1a7d4d856040518263ffffffff1660e01b8152600401611edb9190612f60565b600060405180830381600087803b158015611ef557600080fd5b505af1158015611f09573d6000803e3d6000fd5b50506040516370a0823160e01b81528492506001600160a01b037f00000000000000000000000000000000000000000000000000000000000000001691506370a0823190611f5b90309060040161313e565b60206040518083038186803b158015611f7357600080fd5b505afa158015611f87573d6000803e3d6000fd5b505050506040513d601f19601f82011682018060405250810190611fab91906137a7565b611fb5919061372e565b91508181608001818151611fc9919061355c565b90525060408101518211611fdd5781611fe3565b80604001515b91508181604001818151611ff7919061372e565b9052506009805483919060009061200f90849061372e565b90915550506001600160a01b03858116600090815260076020818152604092839020855181546001600160a01b0319169516949094178455848101516001850155918401516002840155606084015160038401805460ff19169115159190911790556080840151600484015560a0840151600584015560c0840151600684015560e08401519083015561010083015180518493926120b4926008850192910190612e55565b5050505050505050565b610e1e8133612bfd565b6120d2828261125b565b610ce25760008281526002602090815260408083206001600160a01b03851684529091529020805460ff1916600117905561210a3390565b6001600160a01b0316816001600160a01b0316837f2f8788117e7eff1d82e926ec794901d17c78024a50270940304540a733656f0d60405160405180910390a45050565b612158828261125b565b15610ce25760008281526002602090815260408083206001600160a01b0385168085529252808320805460ff1916905551339285917ff6391f5c32d9c69d2a47ea670b442974b53935d1edc7fd64eb21e047a839171b9190a45050565b6121bd612c56565b6000805460ff191690557f5db9ee0a495bf2e6ff9c91a7834c1ba4fdd244a5e8aa4e537bd38aeae4b073aa335b6040516121f7919061313e565b60405180910390a1565b60005460ff16156122245760405162461bcd60e51b81526004016109ff90613979565b565b600260015414156122495760405162461bcd60e51b81526004016109ff906139bd565b6002600155565b82600360008282546122629190613647565b90915550506001600160a01b0381166000908152600460205260408120805485929061228f908490613647565b90915550506040516370a0823160e01b81526000906001600160a01b037f000000000000000000000000000000000000000000000000000000000000000016906370a08231906122e390309060040161313e565b60206040518083038186803b1580156122fb57600080fd5b505afa15801561230f573d6000803e3d6000fd5b505050506040513d601f19601f8201168201806040525081019061233391906137a7565b6040516323b872dd60e01b81529091506001600160a01b037f000000000000000000000000000000000000000000000000000000000000000016906323b872dd90612386903390309088906004016139cd565b602060405180830381600087803b1580156123a057600080fd5b505af11580156123b4573d6000803e3d6000fd5b505050506040513d601f19601f820116820180604052508101906123d8919061382a565b506040516370a0823160e01b815281906001600160a01b037f000000000000000000000000000000000000000000000000000000000000000016906370a082319061242790309060040161313e565b60206040518083038186803b15801561243f57600080fd5b505afa158015612453573d6000803e3d6000fd5b505050506040513d601f19601f8201168201806040525081019061247791906137a7565b612481919061372e565b90508281146124a25760405162461bcd60e51b81526004016109ff90613a28565b80600b60008282546124b491906137c8565b909155505060405133906001600160a01b038416907fdcbc1c05240f31ff3ad067ef1ee35ce4997762752e3a095284754544f4c709d7906124f89087908990613a38565b60405180910390a350505050565b61250e612201565b6000805460ff191660011790557f62e78cea01bee320cd4e420270b5ea74000d11b0c9f74754ebdbfc544b05a2586121ea3390565b6001600160a01b03811660009081526007602052604090206003015460ff1661257e5760405162461bcd60e51b81526004016109ff9061371e565b612589816000611cf7565b6001600160a01b03808216600090815260076020818152604080842081516101208101835281549096168652600181015492860192909252600282015490850152600381015460ff161515606085015260048101546080850152600581015460a0850152600681015460c08501529081015460e0840152600881018054929392610100840191906126199061341a565b80601f01602080910402602001604051908101604052809291908181526020018280546126459061341a565b80156126925780601f1061266757610100808354040283529160200191612692565b820191906000526020600020905b81548152906001019060200180831161267557829003601f168201915b50505050508152505090508060200151600860008282546126b3919061372e565b909155505060006020828101828152606084018381526001600160a01b0386811685526007808552604095869020875181546001600160a01b0319169316929092178255925160018201559385015160028501555160038401805460ff19169115159190911790556080840151600484015560a0840151600584015560c0840151600684015560e084015190830155610100830151805184939261275e926008850192910190612e55565b50905050816001600160a01b0316336001600160a01b03167f0f61091e2f9f1e0f963e8b0eca1ce42b6da200e37b6ce852f8ae8dfa05b5efc06008546040516127a79190612f60565b60405180910390a35050565b6001600160a01b0381166000908152600460205260408120548411156127eb5760405162461bcd60e51b81526004016109ff90613a7a565b6000841161280b5760405162461bcd60e51b81526004016109ff90613ac8565b61281484610865565b90506003548414156128f95760005b60055481101561285557612843600582815481106111955761119561388f565b8061284d816138a5565b915050612823565b506040516370a0823160e01b81526001600160a01b037f000000000000000000000000000000000000000000000000000000000000000016906370a08231906128a290309060040161313e565b60206040518083038186803b1580156128ba57600080fd5b505afa1580156128ce573d6000803e3d6000fd5b505050506040513d601f19601f820116820180604052508101906128f291906137a7565b9050612aaf565b6040516370a0823160e01b81526000906001600160a01b037f000000000000000000000000000000000000000000000000000000000000000016906370a082319061294890309060040161313e565b60206040518083038186803b15801561296057600080fd5b505afa158015612974573d6000803e3d6000fd5b505050506040513d601f19601f8201168201806040525081019061299891906137a7565b905080821115612aad5760005b600554811015612aab5760006129bb838561372e565b9050806129c85750612aab565b6129f9600583815481106129de576129de61388f565b6000918252602090912001546001600160a01b031682611cf7565b6040516370a0823160e01b81526001600160a01b037f000000000000000000000000000000000000000000000000000000000000000016906370a0823190612a4590309060040161313e565b60206040518083038186803b158015612a5d57600080fd5b505afa158015612a71573d6000803e3d6000fd5b505050506040513d601f19601f82011682018060405250810190612a9591906137a7565b9250508080612aa3906138a5565b9150506129a5565b505b505b60405163a9059cbb60e01b81526001600160a01b037f0000000000000000000000000000000000000000000000000000000000000000169063a9059cbb90612afd9086908590600401613804565b602060405180830381600087803b158015612b1757600080fd5b505af1158015612b2b573d6000803e3d6000fd5b505050506040513d601f19601f82011682018060405250810190612b4f919061382a565b508360036000828254612b62919061372e565b90915550506001600160a01b03821660009081526004602052604081208054869290612b8f90849061372e565b9250508190555080600b6000828254612ba8919061355c565b909155505060405133906001600160a01b0385169082907ffbde797d201c681b91056529119e0b02407c7bb96a4a2c75c01fc9667232c8db90612bee9086908a90613a38565b60405180910390a49392505050565b612c07828261125b565b610ce257612c1481612c78565b612c1f836020612c8a565b604051602001612c30929190613afa565b60408051601f198184030181529082905262461bcd60e51b82526109ff91600401613026565b60005460ff166122245760405162461bcd60e51b81526004016109ff90613b7d565b60606107896001600160a01b03831660145b60606000612c9983600261345d565b612ca4906002613647565b67ffffffffffffffff811115612cbc57612cbc613b8d565b6040519080825280601f01601f191660200182016040528015612ce6576020820181803683370190505b509050600360fc1b81600081518110612d0157612d0161388f565b60200101906001600160f81b031916908160001a905350600f60fb1b81600181518110612d3057612d3061388f565b60200101906001600160f81b031916908160001a9053506000612d5484600261345d565b612d5f906001613647565b90505b6001811115612dd7576f181899199a1a9b1b9c1cb0b131b232b360811b85600f1660108110612d9357612d9361388f565b1a60f81b828281518110612da957612da961388f565b60200101906001600160f81b031916908160001a90535060049490941c93612dd081613ba3565b9050612d62565b5083156107865760405162461bcd60e51b81526004016109ff90613bec565b828054828255906000526020600020908101928215612e49579160200282015b82811115612e495781546001600160a01b0319166001600160a01b03843516178255602090920191600190910190612e16565b50611cf3929150612ec9565b828054612e619061341a565b90600052602060002090601f016020900481019282612e835760008555612e49565b82601f10612e9c57805160ff1916838001178555612e49565b82800160010185558215612e49579182015b82811115612e49578251825591602001919060010190612eae565b5b80821115611cf35760008155600101612eca565b805b8114610e1e57600080fd5b803561078981612ede565b60006001600160a01b038216610789565b612ee081612ef6565b803561078981612f07565b60008060408385031215612f3157612f31600080fd5b6000612f3d8585612eeb565b9250506020612f4e85828601612f10565b9150509250929050565b805b82525050565b602081016107898284612f58565b6001600160e01b03198116612ee0565b803561078981612f6e565b600060208284031215612f9e57612f9e600080fd5b6000612faa8484612f7e565b949350505050565b801515612f5a565b602081016107898284612fb2565b60005b83811015612fe3578181015183820152602001612fcb565b83811115610c405750506000910152565b6000612ffe825190565b808452602084019350613015818560208601612fc8565b601f01601f19169290920192915050565b602080825281016107868184612ff4565b60006020828403121561304c5761304c600080fd5b6000612faa8484612eeb565b6000806040838503121561306e5761306e600080fd5b600061307a8585612f10565b9250506020612f4e85828601612eeb565b600080604083850312156130a1576130a1600080fd5b600061307a8585612eeb565b6000806000606084860312156130c5576130c5600080fd5b60006130d18686612f10565b93505060206130e286828701612f10565b92505060406130f386828701612eeb565b9150509250925092565b60006020828403121561311257613112600080fd5b6000612faa8484612f10565b60ff8116612f5a565b60208101610789828461311e565b612f5a81612ef6565b602081016107898284613135565b610120810161315b828c613135565b613168602083018b612f58565b613175604083018a612f58565b6131826060830189612fb2565b61318f6080830188612f58565b61319c60a0830187612f58565b6131a960c0830186612f58565b6131b660e0830185612f58565b8181036101008301526131c98184612ff4565b9b9a5050505050505050505050565b801515612ee0565b8035610789816131d8565b60006020828403121561320057613200600080fd5b6000612faa84846131e0565b60008083601f84011261322157613221600080fd5b50813567ffffffffffffffff81111561323c5761323c600080fd5b60208301915083602082028301111561325757613257600080fd5b9250929050565b6000806020838503121561327457613274600080fd5b823567ffffffffffffffff81111561328e5761328e600080fd5b61329a8582860161320c565b92509250509250929050565b6000806000606084860312156132be576132be600080fd5b60006132ca8686612eeb565b93505060206132db86828701612f10565b92505060406130f386828701612f10565b6000806040838503121561330257613302600080fd5b6000612f3d8585612f10565b60008083601f84011261332357613323600080fd5b50813567ffffffffffffffff81111561333e5761333e600080fd5b60208301915083600182028301111561325757613257600080fd5b600080600080600080600060c0888a03121561337757613377600080fd5b60006133838a8a612f10565b97505060206133948a828b01612f10565b96505060406133a58a828b01612eeb565b95505060606133b68a828b01612eeb565b94505060806133c78a828b01612eeb565b93505060a088013567ffffffffffffffff8111156133e7576133e7600080fd5b6133f38a828b0161330e565b925092505092959891949750929550565b634e487b7160e01b600052602260045260246000fd5b60028104600182168061342e57607f821691505b6020821081141561344157613441613404565b50919050565b634e487b7160e01b600052601160045260246000fd5b600081600019048311821515161561347757613477613447565b500290565b634e487b7160e01b600052601260045260246000fd5b6000826134a1576134a161347c565b500490565b6000826001600160ff1b0304821160008413600084131616156134cb576134cb613447565b81600160ff1b05831260008412600084131616156134eb576134eb613447565b82600160ff1b058212600084136000841216161561350b5761350b613447565b826001600160ff1b03058212600084126000841216161561347757613477613447565b60008261353d5761353d61347c565b600160ff1b82146000198414161561355757613557613447565b500590565b600082600160ff1b0182126000841215161561357a5761357a613447565b826001600160ff1b0301821360008412161561359857613598613447565b500390565b602781526000602082017f5661756c7456313a207374726174656779486f6f6b20736c69707061676520658152661e18d95959195960ca1b602082015291505b5060400190565b602080825281016107898161359d565b602681526000602082017f5661756c7456313a2043616c6c6572206e6f742061637469766174656420737481526572617465677960d01b602082015291506135dd565b60208082528101610789816135f4565b6000821982111561365a5761365a613447565b500190565b601a81526000602082017f5661756c7456313a20436f6f6c646f776e206578636565646564000000000000815291505b5060200190565b602080825281016107898161365f565b601e81526000602082017f5661756c7456313a204e6f74207374726174656779206f70657261746f7200008152915061368f565b60208082528101610789816136a6565b601f81526000602082017f5661756c7456313a205374726174656779206e6f7420616374697661746564008152915061368f565b60208082528101610789816136ea565b60008282101561359857613598613447565b602f81526000602082017f416363657373436f6e74726f6c3a2063616e206f6e6c792072656e6f756e636581526e103937b632b9903337b91039b2b63360891b602082015291506135dd565b6020808252810161078981613740565b805161078981612ede565b6000602082840312156137bc576137bc600080fd5b6000612faa848461379c565b6000816001600160ff1b03038313600083121516156137e9576137e9613447565b81600160ff1b03831260008312161561365a5761365a613447565b604081016138128285613135565b610c496020830184612f58565b8051610789816131d8565b60006020828403121561383f5761383f600080fd5b6000612faa848461381f565b601881526000602082017f5661756c7456313a204e6f742077686974656c697374656400000000000000008152915061368f565b602080825281016107898161384b565b634e487b7160e01b600052603260045260246000fd5b60006000198214156138b9576138b9613447565b5060010190565b603e81526000602082017f5661756c7456313a204163636f756e7420776974682072656d61696e696e672081527f7368617265732063616e6e6f7420626520646577686974656c69737465640000602082015291506135dd565b60208082528101610789816138c0565b606081016139388286612f58565b6139456020830185612f58565b612faa6040830184612f58565b601081526000602082016f14185d5cd8589b194e881c185d5cd95960821b8152915061368f565b6020808252810161078981613952565b601f81526000602082017f5265656e7472616e637947756172643a207265656e7472616e742063616c6c008152915061368f565b6020808252810161078981613989565b606081016139db8286613135565b6139456020830185613135565b602381526000602082017f5661756c7456313a20496e636f686572656e74207472616e7366657220616d6f8152621d5b9d60ea1b602082015291506135dd565b60208082528101610789816139e8565b604081016138128285612f58565b601a81526000602082017f5661756c7456313a204e6f7420656e6f756768207368617265730000000000008152915061368f565b6020808252810161078981613a46565b602181526000602082017f5661756c7456313a204e6f74207769746864726177696e6720616e797468696e8152606760f81b602082015291506135dd565b6020808252810161078981613a8a565b6000613ae2825190565b613af0818560208601612fc8565b9290920192915050565b7f416363657373436f6e74726f6c3a206163636f756e742000000000000000000081526017016000613b2c8285613ad8565b7001034b99036b4b9b9b4b733903937b6329607d1b81526011019150612faa8284613ad8565b601481526000602082017314185d5cd8589b194e881b9bdd081c185d5cd95960621b8152915061368f565b6020808252810161078981613b52565b634e487b7160e01b600052604160045260246000fd5b600081613bb257613bb2613447565b506000190190565b60208082527f537472696e67733a20686578206c656e67746820696e73756666696369656e749101908152600061368f565b6020808252810161078981613bba56fea2646970667358221220f9039a8b8c9b131ae04c78d60a1dcb74ebe1c4375b79969b99adc4513762f5ef64736f6c63430008090033",
  "linkReferences": {},
  "deployedLinkReferences": {}
}